:020000040000FA
:10000000680400206D02000071020000730200000D
:100010007502000077020000790200000000000075
:100020000000000000000000000000007B02000053
:100030007D020000000000007F0200008108000037
:1000400083020000830200008302000049050000D3
:10005000830200008302000083020000830200008C
:10006000830200008302000083020000830200007C
:10007000830200008302000083020000830200006C
:10008000830200008302000083020000830200005C
:10009000830200008302000083020000830200004C
:1000A000830200008302000083020000830200003C
:1000B000830200008302000041060000830200006A
:1000C000830200008302000083020000830200001C
:1000D000830200008302000083020000830200000C
:1000E00083020000830200008302000083020000FC
:1000F00083020000830200008302000083020000EC
:1001000083020000830200008302000083020000DB
:1001100083020000830200008302000083020000CB
:1001200083020000830200008302000083020000BB
:1001300083020000830200008302000083020000AB
:1001400000000000000000000000000000000000AF
:10015000830200008302000083020000830200008B
:10016000000000000000000000000000000000008F
:10017000000000000000000000000000000000007F
:10018000000000000000000000000000000000006F
:10019000000000000000000000000000000000005F
:1001A000000000000000000000000000000000004F
:1001B000830200008302000083020000830200002B
:1001C000830200008302000083020000830200001B
:1001D000830200008302000083020000830200000B
:1001E00083020000830200008302000083020000FB
:1001F00083020000830200008302000083020000EB
:10020000830200008302000083020000000000005F
:1002100083020000830200008302000083020000CA
:1002200083020000830200008302000083020000BA
:1002300083020000830200008302000083020000AA
:10024000830200008302000083020000830200009A
:10025000830200008302000083020000830200008A
:1002600083020000830200008302000000F00AB84D
:10027000FEE7FEE7FEE7FEE7FEE7FEE7FEE7FEE756
:10028000FEE7FEE700F002F800F02CF80AA090E884
:10029000000C82448344AAF10107DA4501D100F041
:1002A00021F8AFF2090EBAE80F0013F0010F18BFE2
:1002B000FB1A43F00103184798060000A806000047
:1002C0000023002400250026103A28BF78C1FBD85F
:1002D000520728BF30C148BF0B6070471FB51FBD14
:1002E00010B510BD00F029F81146FFF7F7FF00F038
:1002F000EBFA00F047F803B4FFF7F2FF03BC00F09D
:100300004FF8000072B6704762B67047EFF3108086
:1003100072B6704780F31088704730BF704702484C
:100320000249014A024B704768000020680400201F
:1003300068000020704770477047754600F02CF841
:10034000AE4605006946534620F00700854618B0C2
:1003500020B5FFF7E4FFBDE820404FF000064FF066
:1003600000074FF000084FF0000BAC46ACE8C009A6
:10037000ACE8C009ACE8C009ACE8C00921F007014D
:100380008D46704710B50446AFF300802046BDE8A7
:100390001040FFF7B0BF0000004870470000002089
:1003A00001491820ABBEFEE726000200704700009E
:1003B0004EF20811C4F20F01086840F020000860F6
:1003C000FFE74EF20810C4F20F00006800F02000B2
:1003D000202801D0FFE7F4E745F22051C4F20201E2
:1003E00044F24B30C4F64F40086045F22451C4F249
:1003F0000201086840F01F00086045F22851C4F26D
:100400000201086820F01F00086045F22C51C4F278
:10041000020108686FF31300086045F20041C4F25E
:100420000201086820F01100086045F22041C4F282
:100430000201086820F01F00086045F21051C4F264
:100440000201086840F01100086045F21C51C4F236
:100450000201086840F01F00086045F20441C4F240
:100460000201086820F01100086045F20841C4F25A
:100470000201086820F01100086045F20C41C4F246
:100480000201086820F01100086045F21C41C4F226
:1004900002011120086045F21041C4F2020108680F
:1004A00040F0110008604EF21C41CEF200010868D5
:1004B000022262F3575008604EF20011CEF20001A2
:1004C000086840F0804008607047000081B04EF23C
:1004D0000810C4F20F00016841F0020101600068D9
:1004E000009045F22851C4F20001086820F03F0056
:1004F000086045F22C51C4F20001086800F07F400A
:10050000086045F20041C4F20001086840F03F0075
:10051000086045F22041C4F20001086820F03F0065
:10052000086045F21C51C4F20001086840F03F0029
:10053000086045F20851C4F20001086840F03F002D
:10054000086001B07047000081B000200090FFE714
:10055000009841F61341C0F20101884205D8FFE737
:10056000FFE7009801300090F2E740F26100C2F22C
:1005700000000078002860D1FFE747F21440C4F281
:1005800000000068C00778B1FFE740F26301C2F2E3
:100590000001087880F00100087047F21C41C4F2A5
:1005A000000101200860FFE747F21440C4F2000098
:1005B0000068800700280FD5FFE740F26401C2F20F
:1005C0000001087880F00200087047F21C41C4F274
:1005D000000102200860FFE747F21440C4F2000067
:1005E0000068400700280FD5FFE740F26501C2F21E
:1005F0000001087880F00400087047F21C41C4F242
:10060000000104200860FFE747F21440C4F2000034
:100610000068000700280FD5FFE740F26601C2F22C
:100620000001087880F00800087047F21C41C4F20D
:10063000000108200860FFE7FFE701B070470000F5
:1006400081B000200090FFE7009841F61341C0F20E
:100650000101884205D8FFE7FFE7009801300090CC
:10066000F2E745F21440C4F202000068C006002818
:100670002BD5FFE740F26100C2F20000007868B9B4
:10068000FFE740F26101C2F200010120087045F26B
:100690001C41C4F202011020086015E040F2610024
:1006A000C2F20000007801280DD1FFE740F261019D
:1006B000C2F200010020087045F21C41C4F20201A0
:1006C00010200860FFE7FFE7FFE745F21440C4F29F
:1006D00002000068C007002841D0FFE740F2610037
:1006E000C2F200000078C0B9FFE740F26701C2F231
:1006F0000001087801304AF6AB22CAF6AA22A0FB14
:100700000232520802EB4202801A087045F21C4184
:10071000C4F202010120086020E040F26100C2F250
:1007200000000078012818D1FFE740F26201C2F210
:100730000001087801304AF6AB22CAF6AA22A0FBD3
:100740000232520802EB4202801A087045F21C4144
:10075000C4F2020101200860FFE7FFE7FFE701B0F4
:10076000704700004EF20811C4F20F01086840F013
:1007700008000860FFE74EF20810C4F20F0000689E
:1007800000F00800082801D0FFE7F4E747F2205105
:10079000C4F2000144F24B30C4F64F40086047F207
:1007A0002451C4F20001086840F01F00086047F2BD
:1007B0002851C4F20001086820F01F00086047F2C9
:1007C0002C51C4F2000108686FF31300086047F26F
:1007D0000041C4F20001086820F01F00086047F2E1
:1007E0002041C4F20001086820F01F00086047F2B1
:1007F0001051C4F20001086840F01F00086047F281
:100800001C51C4F20001086840F01F00086047F264
:100810000441C4F20001086820F01F00086047F29C
:100820000841C4F20001086820F01F00086047F288
:100830000C41C4F20001086820F01F00086047F274
:100840001C41C4F200011F20086047F21041C4F2AD
:100850000001086840F01F0008604EF20041CEF22F
:1008600000010868042262F35F7008604EF2001114
:10087000CEF20001086840F00800086070470000F0
:1008800045F2FC31C4F20201086880F008000860FB
:1008900040F26000C2F200000178013101F03F0136
:1008A0000170017840F60E10C0F20000405C45F285
:1008B000FC11C4F2000108607047000040F26100C2
:1008C000C2F200000078704780B582B0002001902D
:1008D000FFF718FDFFF7FAFDFFF76AFDFFF742FF8C
:1008E000FFF712FDFFE7FFF7E9FF0146009120B196
:1008F000FFE70098012803D005E0FFF70EFD03E0B5
:1009000000F004F800E0FFE7EDE700007047202367
:1009100026292C2F313436383A3B3D3E3E3F3F3F6F
:100920003E3E3D3B3A383634312F2C292623201DBC
:100930001A1714110F0C0A0806050302020101011F
:100940000202030506080A0C0F1114171A1D0000F5
:10095000600900000000002068040000C0020000E0
:040000050000026D88
:00000001FF
