:020000040000FA
:10000000800400206D0200007102000073020000F5
:100010007502000077020000790200000000000075
:100020000000000000000000000000007B02000053
:100030007D020000000000007F020000FD080000BB
:100040008302000083020000830200008505000097
:10005000830200008302000083020000830200008C
:10006000830200008302000083020000830200007C
:10007000830200008302000083020000830200006C
:10008000830200008302000083020000830200005C
:10009000830200008302000083020000830200004C
:1000A000830200008302000083020000830200003C
:1000B0008302000083020000890600008302000022
:1000C000830200008302000083020000830200001C
:1000D000830200008302000083020000830200000C
:1000E00083020000830200008302000083020000FC
:1000F00083020000830200008302000083020000EC
:1001000083020000830200008302000083020000DB
:1001100083020000830200008302000083020000CB
:1001200083020000830200008302000083020000BB
:1001300083020000830200008302000083020000AB
:1001400000000000000000000000000000000000AF
:10015000830200008302000083020000830200008B
:10016000000000000000000000000000000000008F
:10017000000000000000000000000000000000007F
:10018000000000000000000000000000000000006F
:10019000000000000000000000000000000000005F
:1001A000000000000000000000000000000000004F
:1001B000830200008302000083020000830200002B
:1001C000830200008302000083020000830200001B
:1001D000830200008302000083020000830200000B
:1001E00083020000830200008302000083020000FB
:1001F00083020000830200008302000083020000EB
:10020000830200008302000083020000000000005F
:1002100083020000830200008302000083020000CA
:1002200083020000830200008302000083020000BA
:1002300083020000830200008302000083020000AA
:10024000830200008302000083020000830200009A
:10025000830200008302000083020000830200008A
:1002600083020000830200008302000000F00AB84D
:10027000FEE7FEE7FEE7FEE7FEE7FEE7FEE7FEE756
:10028000FEE7FEE700F002F800F03AF80AA090E876
:10029000000C82448344AAF10107DA4501D100F041
:1002A0002FF8AFF2090EBAE80F0013F0010F18BFD4
:1002B000FB1A43F001031847EC0B00000C0C000084
:1002C000103A24BF78C878C1FAD8520724BF30C882
:1002D00030C144BF04680C60704700000023002454
:1002E00000250026103A28BF78C1FBD8520728BF46
:1002F00030C148BF0B6070471FB51FBD10B510BDA2
:1003000000F029F81146FFF7F7FF00F049FB00F075
:1003100047F803B4FFF7F2FF03BC00F04FF800000A
:1003200072B6704762B67047EFF3108072B67047CE
:1003300080F31088704730BF704702480249014A75
:10034000024B7047800000208004002080000020C5
:10035000704770477047754600F02CF8AE460500B0
:100360006946534620F00700854618B020B5FFF7D0
:10037000E4FFBDE820404FF000064FF000074FF0CB
:1003800000084FF0000BAC46ACE8C009ACE8C0096F
:10039000ACE8C009ACE8C00921F007018D46704700
:1003A00010B50446AFF300802046BDE81040FFF7CB
:1003B000B0BF00000048704710000020014918201D
:1003C000ABBEFEE726000200704700004EF20811A7
:1003D000C4F20F01086840F020000860FFE74EF209
:1003E0000810C4F20F00006800F02000202801D09F
:1003F000FFE7F4E745F22051C4F2020144F24B302A
:10040000C4F64F40086045F22451C4F20201086866
:1004100040F01F00086045F22851C4F2020108684C
:1004200020F01F00086045F22C51C4F20201086858
:100430006FF31300086045F20041C4F2020108683E
:1004400020F01100086045F22041C4F20201086862
:1004500020F01F00086045F21051C4F20201086844
:1004600040F01100086045F21C51C4F20201086816
:1004700040F01F00086045F20441C4F20201086820
:1004800020F01100086045F20841C4F2020108683A
:1004900020F01100086045F20C41C4F20201086826
:1004A00020F01100086045F21C41C4F20201112045
:1004B000086045F21041C4F20201086840F01100E2
:1004C00008604EF21C41CEF200010868022262F37D
:1004D000575008604EF20011CEF20001086840F05B
:1004E000804008607047000081B04EF20810C4F2EE
:1004F0000F00016841F0020101600068009045F2C0
:100500002851C4F20001086820F03F00086045F25D
:100510002C51C4F20001086800F07F40086045F2E9
:100520000041C4F20001086840F03F00086045F255
:100530002041C4F20001086820F03F00086045F245
:100540001C51C4F20001086840F03F00086045F209
:100550000851C4F20001086840F03F00086001B093
:100560007047000081B047F25800C0F202000090CE
:10057000FFE7009820B1FFE7009801380090F8E706
:1005800001B0704781B000200090FFE7009841F66D
:100590001341C0F20101884205D8FFE7FFE7009848
:1005A00001300090F2E740F27100C2F200000078E2
:1005B000002867D1FFE747F21440C4F2000000684A
:1005C000C00778B1FFE740F27301C2F2000108787A
:1005D00080F00100087047F21C41C4F200010120C4
:1005E0000860FFE747F21440C4F20000006880078B
:1005F00000280FD5FFE740F27401C2F2000108782D
:1006000080F00200087047F21C41C4F20001022091
:100610000860FFE747F21440C4F20000006840079A
:1006200000280FD5FFE740F27501C2F200010878FB
:1006300080F00400087047F21C41C4F2000104205D
:100640000860FFE747F21440C4F2000000680007AA
:1006500000280FD5FFE740F27601C2F200010878CA
:1006600080F00800087047F21C41C4F20001082025
:10067000086006E047F21C41C4F200010F20086048
:10068000FFE7FFE701B0704781B000200090FFE76F
:10069000009841F61341C0F20101884205D8FFE7F6
:1006A000FFE7009801300090F2E745F21440C4F2F1
:1006B00002000068C00600282CD5FFE740F2710058
:1006C000C2F20000007870B9FFE740F27101C2F297
:1006D000000108780130087045F21C41C4F20201A3
:1006E00010200860FFE740F27100C2F200000078BD
:1006F00001280ED1FFE740F27101C2F20001087833
:100700000138087045F21C41C4F202011020086053
:10071000FFE7FFE745F21440C4F202000068C0079B
:10072000002840D0FFE740F27100C2F200000078DC
:10073000C0B9FFE740F27701C2F20001087801304A
:100740004AF6AB22CAF6AA22A0FB0232520802EBFA
:100750004202801A087045F21C41C4F202010120D5
:100760000860FFE740F27100C2F200000078012843
:1007700018D1FFE740F27201C2F20001087801309F
:100780004AF6AB22CAF6AA22A0FB0232520802EBBA
:100790004202801A087045F21C41C4F20201012095
:1007A0000860FFE7FFE701B0704700004EF2081154
:1007B000C4F20F01086840F008000860FFE74EF23D
:1007C0000810C4F20F00006800F00800082801D0EB
:1007D000FFE7F4E747F22051C4F2000144F24B3046
:1007E000C4F64F40086047F22451C4F20001086883
:1007F00040F01F00086047F22851C4F20001086869
:1008000020F01F00086047F22C51C4F20001086874
:100810006FF31300086047F20041C4F2000108685A
:1008200020F01F00086047F22041C4F20001086870
:1008300020F01F00086047F21051C4F20001086860
:1008400040F01F00086047F21C51C4F20001086824
:1008500040F01F00086047F20441C4F2000108683C
:1008600020F01F00086047F20841C4F20001086848
:1008700020F01F00086047F20C41C4F20001086834
:1008800020F01F00086047F21C41C4F200011F2045
:10089000086047F21041C4F20001086840F01F00F0
:1008A00008604EF21C41CEF200010868042262F397
:1008B000430008604EF20011CEF20001086840F0DB
:1008C000080008607047000040F27001C2F20001A9
:1008D000002008704EF21001CEF2000108604EF6C2
:1008E0002052CEF200021068202363F31F601060D4
:1008F000086840F0060008607047000045F2FC31CF
:10090000C4F20201086880F00800086040F270003C
:10091000C2F200000178013101F03F01017001785D
:1009200040F6B430C0F20000405C45F2FC11C4F265
:10093000000108607047000081B000900098013805
:100940004EF21401CEF2000108604EF21801CEF210
:1009500000010020086001B0704700004EF2100155
:10096000CEF20001086840F0010008607047000006
:100970004EF21001CEF20001086820F0010008607C
:100980007047000040F27100C2F20000007870472A
:1009900040F27800C2F20000007800F001007047D9
:1009A00080B582B000200190FFF7BAFCFFF79CFDF4
:1009B000FFF70CFDFFF7FAFEFFF786FFFFF7B2FC2B
:1009C000FFE7FFF7DFFF0146009120B1FFE7009846
:1009D000012803D005E0FFF7AEFC03E000F004F8C7
:1009E00000E0FFE7EDE7000080B582B040F279005B
:1009F000C2F2000001788DF8071000218DF8061072
:100A0000017840F20000C2F2000050F8210000908E
:100A1000FFE700989DF8061000EBC1000079002860
:100A20004CD0FFE700989DF8061050F83100FF28E1
:100A300003D1FFE7FFF79CFF0FE000989DF8061039
:100A400050F8311040F6F430C0F2000050F82100A8
:100A5000FFF772FFFFF782FFFFE700208DF8050028
:100A6000FFE79DF8050000999DF8062001EBC20103
:100A7000097988421ADAFFE740F27900C2F20000F1
:100A800000789DF80710884204D1FFE7FFF780FF48
:100A900018B9FFE7FFF76CFF22E0FFF763FDFFE700
:100AA0009DF8050001308DF80500DAE7FFF760FFDB
:100AB0009DF8060001308DF80600AAE700208DF8A9
:100AC0000500FFE79DF805000E2809DCFFE7FFF7AA
:100AD00049FDFFE79DF8050001308DF80500F1E7BD
:100AE00002B080BD02000000040000000100000010
:100AF00004000000000000000400000001000000ED
:100B000004000000020000000400000002000000D9
:100B100004000000020000000800000001000000C6
:100B200004000000010000000400000001000000BB
:100B300008000000020000000400000004000000A3
:100B40000400000004000000080000000200000093
:100B5000040000000100000004000000000000008C
:100B6000040000000100000004000000020000007A
:100B70000400000002000000040000000200000069
:100B80000800000001000000040000000100000057
:100B9000040000000200000004000000010000004A
:100BA0000400000000000000080000000000000039
:100BB00000000000202326292C2F313436383A3B00
:100BC0003D3E3E3F3F3F3E3E3D3B3A383634312F7F
:100BD0002C292623201D1A1714110F0C0A080605AC
:100BE0000302020101010202030506080A0C0F11AB
:100BF00014171A1D19DD01002CA90100CA7A010081
:100C000025650100E13E0100171C010009FD0000FF
:100C10008CEE000096D4000064BD000016B3000006
:100C2000709F00000C8E0000847E00007277000030
:100C30006A6A0000CE5E00007C590000B84F0000D8
:100C400006470000463F0000BA3B00003435000074
:100C5000662F0000BE2C0000DC270000822300006D
:100C6000A41F0000000000000400000000000000BD
:100C70000400000004000000040000000400000064
:100C80000400000005000000040000000500000052
:100C90000400000004000000080000000300000041
:100CA0000400000003000000040000000200000037
:100CB0000400000002000000040000000100000029
:100CC000040000000100000004000000000000001B
:100CD0000800000004000000040000000400000000
:100CE00004000000030000000400000003000000F6
:100CF00004000000020000000400000002000000E8
:100D000004000000010000000800000004000000D2
:100D100004000000040000000400000003000000C4
:100D200004000000030000000400000002000000B6
:100D300004000000020000000400000001000000A8
:100D40000800000000000000040000000000000097
:100D50000400000004000000040000000400000083
:100D60000400000005000000040000000500000071
:100D70000400000004000000080000000300000060
:100D80000400000003000000040000000200000056
:100D90000400000002000000040000000100000048
:100DA000040000000100000004000000000000003A
:100DB0000800000000000000000000000B00000020
:100DC000020000000B000000020000000C00000008
:100DD000040000000B000000040000000E000000F2
:100DE000040000000D00000004000000FF000000EF
:100DF000040000000B000000020000000B000000D7
:100E0000020000000C000000040000000B000000C5
:100E1000040000000F000000040000000E000000AD
:100E200004000000FF000000040000000B000000B0
:100E3000020000000B000000020000001200000091
:100E40000400000010000000040000000E0000007C
:100E5000040000000D000000040000000C00000071
:100E600008000000FF000000040000001100000066
:100E7000020000001100000002000000100000004D
:100E8000040000000E000000040000000F0000003D
:100E9000040000000E000000080000000000000038
:100EA00000000000C40E0000000000200C00000044
:100EB000C0020000D00E00001000002070040000EE
:100EC000DC020000E40A0000640C0000BC0D00001D
:040000050000026D88
:00000001FF
