:020000040000FA
:10000000780400206D0200007102000073020000FD
:100010007502000077020000790200000000000075
:100020000000000000000000000000007B02000053
:100030007D020000000000007F020000CD080000EB
:100040008302000083020000830200008505000097
:10005000830200008302000083020000830200008C
:10006000830200008302000083020000830200007C
:10007000830200008302000083020000830200006C
:10008000830200008302000083020000830200005C
:10009000830200008302000083020000830200004C
:1000A000830200008302000083020000830200003C
:1000B00083020000830200004D060000830200005E
:1000C000830200008302000083020000830200001C
:1000D000830200008302000083020000830200000C
:1000E00083020000830200008302000083020000FC
:1000F00083020000830200008302000083020000EC
:1001000083020000830200008302000083020000DB
:1001100083020000830200008302000083020000CB
:1001200083020000830200008302000083020000BB
:1001300083020000830200008302000083020000AB
:1001400000000000000000000000000000000000AF
:10015000830200008302000083020000830200008B
:10016000000000000000000000000000000000008F
:10017000000000000000000000000000000000007F
:10018000000000000000000000000000000000006F
:10019000000000000000000000000000000000005F
:1001A000000000000000000000000000000000004F
:1001B000830200008302000083020000830200002B
:1001C000830200008302000083020000830200001B
:1001D000830200008302000083020000830200000B
:1001E00083020000830200008302000083020000FB
:1001F00083020000830200008302000083020000EB
:10020000830200008302000083020000000000005F
:1002100083020000830200008302000083020000CA
:1002200083020000830200008302000083020000BA
:1002300083020000830200008302000083020000AA
:10024000830200008302000083020000830200009A
:10025000830200008302000083020000830200008A
:1002600083020000830200008302000000F00AB84D
:10027000FEE7FEE7FEE7FEE7FEE7FEE7FEE7FEE756
:10028000FEE7FEE700F002F800F03AF80AA090E876
:10029000000C82448344AAF10107DA4501D100F041
:1002A0002FF8AFF2090EBAE80F0013F0010F18BFD4
:1002B000FB1A43F001031847CC0C0000EC0C0000C3
:1002C000103A24BF78C878C1FAD8520724BF30C882
:1002D00030C144BF04680C60704700000023002454
:1002E00000250026103A28BF78C1FBD8520728BF46
:1002F00030C148BF0B6070471FB51FBD10B510BDA2
:1003000000F029F81146FFF7F7FF00F003FB00F0BB
:1003100047F803B4FFF7F2FF03BC00F04FF800000A
:1003200072B6704762B67047EFF3108072B67047CE
:1003300080F31088704730BF704702480249014A75
:10034000024B7047780000207804002078000020DD
:10035000704770477047754600F02CF8AE460500B0
:100360006946534620F00700854618B020B5FFF7D0
:10037000E4FFBDE820404FF000064FF000074FF0CB
:1003800000084FF0000BAC46ACE8C009ACE8C0096F
:10039000ACE8C009ACE8C00921F007018D46704700
:1003A00010B50446AFF300802046BDE81040FFF7CB
:1003B000B0BF00000048704710000020014918201D
:1003C000ABBEFEE726000200704700004EF20811A7
:1003D000C4F20F01086840F020000860FFE74EF209
:1003E0000810C4F20F00006800F02000202801D09F
:1003F000FFE7F4E745F22051C4F2020144F24B302A
:10040000C4F64F40086045F22451C4F20201086866
:1004100040F01F00086045F22851C4F2020108684C
:1004200020F01F00086045F22C51C4F20201086858
:100430006FF31300086045F20041C4F2020108683E
:1004400020F01100086045F22041C4F20201086862
:1004500020F01F00086045F21051C4F20201086844
:1004600040F01100086045F21C51C4F20201086816
:1004700040F01F00086045F20441C4F20201086820
:1004800020F01100086045F20841C4F2020108683A
:1004900020F01100086045F20C41C4F20201086826
:1004A00020F01100086045F21C41C4F20201112045
:1004B000086045F21041C4F20201086840F01100E2
:1004C00008604EF21C41CEF200010868022262F37D
:1004D000575008604EF20011CEF20001086840F05B
:1004E000804008607047000081B04EF20810C4F2EE
:1004F0000F00016841F0020101600068009045F2C0
:100500002851C4F20001086820F03F00086045F25D
:100510002C51C4F20001086800F07F40086045F2E9
:100520000041C4F20001086840F03F00086045F255
:100530002041C4F20001086820F03F00086045F245
:100540001C51C4F20001086840F03F00086045F209
:100550000851C4F20001086840F03F00086001B093
:100560007047000081B047F25800C0F202000090CE
:10057000FFE7009820B1FFE7009801380090F8E706
:1005800001B0704780B582B000200190FFE701986C
:1005900041F61341C0F20101884205D8FFE7FFE7A9
:1005A000019801300190F2E740F27100C2F20000C0
:1005B0000078002848D1FFE747F21440C4F2000059
:1005C0000068C00748B1FFE747F21C41C4F20001D0
:1005D0000120086000F080FAFFE747F21440C4F2FF
:1005E000000000688007002809D5FFE747F21C419A
:1005F000C4F200010220086000F08AFAFFE747F227
:100600001440C4F2000000684007002809D5FFE745
:1006100047F21C41C4F200010420086000F096FA81
:10062000FFE747F21440C4F200000068000700280A
:1006300009D5FFE747F21C41C4F200010820086019
:1006400000F0A2FAFFE7FFE702B080BD80B582B0FC
:1006500000200190FFE7019841F61341C0F201012B
:10066000884205D8FFE7FFE7019801300190F2E7E3
:1006700045F21440C4F202000068C00600282BD5E1
:10068000FFE740F27100C2F20000007868B9FFE7AE
:1006900045F21C41C4F202011020086040F27101D1
:1006A000C2F200010120087015E040F27100C2F2B0
:1006B0000000007801280DD1FFE745F21C41C4F28B
:1006C00002011020086040F27101C2F20001002016
:1006D0000870FFE7FFE7FFE745F21440C4F20200AD
:1006E0000068C00718B3FFE740F27100C2F20000D3
:1006F000007848B9FFE745F21C41C4F2020101202D
:10070000086000F02BF911E040F27100C2F2000025
:100710000078012809D1FFE745F21C41C4F202012B
:100720000120086000F02CF9FFE7FFE7FFE702B0C7
:1007300080BD00004EF20811C4F20F01086840F0BD
:1007400008000860FFE74EF20810C4F20F000068CE
:1007500000F00800082801D0FFE7F4E747F2205135
:10076000C4F2000144F24B30C4F64F40086047F237
:100770002451C4F20001086840F01F00086047F2ED
:100780002851C4F20001086820F01F00086047F2F9
:100790002C51C4F2000108686FF31300086047F29F
:1007A0000041C4F20001086820F01F00086047F211
:1007B0002041C4F20001086820F01F00086047F2E1
:1007C0001051C4F20001086840F01F00086047F2B1
:1007D0001C51C4F20001086840F01F00086047F295
:1007E0000441C4F20001086820F01F00086047F2CD
:1007F0000841C4F20001086820F01F00086047F2B9
:100800000C41C4F20001086820F01F00086047F2A4
:100810001C41C4F200011F20086047F21041C4F2DD
:100820000001086840F01F0008604EF20041CEF25F
:1008300000010868042262F35F7008604EF2001144
:10084000CEF20001086840F0080008607047000020
:1008500040F27001C2F20001002008704EF2100157
:10086000CEF2000108604EF62052CEF2000210686F
:10087000202363F31F601060086840F006000860E2
:100880007047000081B00090009801384EF21401CA
:10089000CEF2000108604EF21801CEF200010020F5
:1008A00008604EF21001CEF20001086840F001002D
:1008B000086001B0704700004EF21001CEF2000156
:1008C000086820F0010008607047000045F2FC3124
:1008D000C4F20201086880F00800086040F270006D
:1008E000C2F200000178013101F03F01017001788E
:1008F00040F69440C0F20000405C45F2FC11C4F2A6
:10090000000108607047000040F27100C2F2000070
:100910000078704780B582B000200190FFF700FD9D
:10092000FFF796FFFFF7E0FDFFF750FDFFF702FF2F
:10093000FFF7F8FCFFE7FFF7E7FF0146009120B162
:10094000FFE70098012803D005E0FFF7F4FC03E07F
:1009500000F028F800E0FFE7EDE7000040F2720148
:10096000C2F20001087801304AF6AB22CAF6AA2288
:10097000A0FB0232520802EB4202801A0870704754
:1009800040F27301C2F20001087801304AF6AB224E
:10099000CAF6AA22A0FB0232520802EB4202801AD7
:1009A0000870704780B584B040F27300C2F2000056
:1009B00001788DF80F1000218DF80E10017840F2AB
:1009C0000000C2F2000050F821000290FFE70298F8
:1009D0009DF80E1000EBC10001790020019059B183
:1009E000FFE740F27100C2F2000000780138B0FA6F
:1009F00080F040090190FFE70198C007002856D019
:100A0000FFE702989DF80E1050F83100FF2803D13F
:100A1000FFE7FFF751FF16E002989DF80E1050F81F
:100A2000310040F27201C2F200010978C1EBC1014C
:100A3000014440F6D440C0F2000050F82100800983
:100A4000FFF720FFFFE700208DF80D00FFE79DF87E
:100A50000D0002999DF80E2001EBC2010979884230
:100A60001DDAFFE740F27300C2F2000000789DF843
:100A70000F10884207D1FFE740F27100C2F2000078
:100A8000007818B9FFE7FFF717FF22E0FFF76AFDCC
:100A9000FFE79DF80D0001308DF80D00D7E7FFF757
:100AA0000BFF9DF80E0001308DF80E008FE700203F
:100AB0008DF80D00FFE79DF80D000E2809DCFFE71B
:100AC000FFF750FDFFE79DF80D0001308DF80D0098
:100AD000F1E704B080BD000080B582B040F2720042
:100AE000C2F200000078C0EBC0008DF807009DF84E
:100AF000071040F6D440C0F2000050F821008009F1
:100B0000FFF7C0FEFFF72EFDFFF7D6FE02B080BD57
:100B100080B582B040F27200C2F200000078C0EBF3
:100B2000C00001308DF807009DF8071040F6D44052
:100B3000C0F2000050F821008009FFF7A3FEFFF784
:100B400011FDFFF7B9FE02B080BD000080B582B094
:100B500040F27200C2F200000078C0EBC000023028
:100B60008DF807009DF8071040F6D440C0F2000051
:100B700050F821008009FFF785FEFFF7F3FCFFF72F
:100B80009BFE02B080BD000080B582B040F27200D2
:100B9000C2F200000078C0EBC00003308DF80700FF
:100BA0009DF8071040F6D440C0F2000050F8210034
:100BB0008009FFF767FEFFF7D5FCFFF77DFE02B067
:100BC00080BD0000090000000400000008000000D3
:100BD00004000000070000000400000008000000FE
:100BE00004000000090000000400000009000000EB
:100BF00004000000090000000800000008000000D8
:100C000004000000080000000400000008000000CC
:100C10000800000009000000040000000B000000B4
:100C2000040000000B0000000800000009000000A4
:100C3000040000000800000004000000070000009D
:100C4000040000000800000004000000090000008B
:100C5000040000000900000004000000090000007A
:100C60000800000008000000040000000800000068
:100C7000040000000900000004000000080000005B
:100C80000400000007000000080000000000000051
:100C900000000000202326292C2F313436383A3B1F
:100CA0003D3E3E3F3F3F3E3E3D3B3A383634312F9E
:100CB0002C292623201D1A1714110F0C0A080605CB
:100CC0000302020101010202030506080A0C0F11CA
:100CD00014171A1D19DD01002CA90100CA7A0100A0
:100CE00025650100E13E0100171C010009FD00001F
:100CF0008CEE000096D4000064BD000016B3000026
:100D0000709F00000C8E0000847E0000727700004F
:100D10006A6A0000CE5E00007C590000B84F0000F7
:100D200006470000463F0000BA3B00003435000093
:100D3000662F0000BE2C0000DC270000822300008C
:100D4000A41F0000070000000400000007000000CE
:100D5000040000000B000000040000000B00000075
:100D6000040000000C000000040000000C00000063
:100D7000040000000B000000080000000A00000052
:100D8000040000000A000000040000000900000048
:100D9000040000000900000004000000080000003A
:100DA000040000000800000004000000070000002C
:100DB000080000000B000000040000000B00000011
:100DC000040000000A000000040000000A00000007
:100DD00004000000090000000400000009000000F9
:100DE0000400000008000000080000000B000000E4
:100DF000040000000B000000040000000A000000D6
:100E0000040000000A0000000400000009000000C7
:100E100004000000090000000400000008000000B9
:100E200008000000070000000400000007000000A8
:100E3000040000000B000000040000000B00000094
:100E4000040000000C000000040000000C00000082
:100E5000040000000B000000080000000A00000071
:100E6000040000000A000000040000000900000067
:100E70000400000009000000040000000800000059
:100E8000040000000800000004000000070000004B
:100E90000800000000000000000000000B0000003F
:100EA000020000000B000000020000000C00000027
:100EB000040000000B000000040000000E00000011
:100EC000040000000D00000004000000FF0000000E
:100ED000040000000B000000020000000B000000F6
:100EE000020000000C000000040000000B000000E5
:100EF000040000000F000000040000000E000000CD
:100F000004000000FF000000040000000B000000CF
:100F1000020000000B0000000200000012000000B0
:100F20000400000010000000040000000E0000009B
:100F3000040000000D000000040000000C00000090
:100F400008000000FF000000040000001100000085
:100F5000020000001100000002000000100000006C
:100F6000040000000E000000040000000F0000005C
:100F7000040000000700000008000000000000005E
:100F800000000000A40F0000000000200C00000082
:100F9000C0020000B00F0000100000206804000034
:100FA000DC020000C40B0000440D00009C0E000099
:040000050000026D88
:00000001FF
